{
    "contractName": "MultiSend",
    "abi": [
        {
            "constant": true,
            "inputs": [],
            "name": "owner",
            "outputs": [
                {
                    "name": "",
                    "type": "address"
                }
            ],
            "payable": false,
            "stateMutability": "view",
            "type": "function"
        },
        {
            "inputs": [],
            "payable": true,
            "stateMutability": "payable",
            "type": "constructor"
        },
        {
            "payable": true,
            "stateMutability": "payable",
            "type": "fallback"
        },
        {
            "constant": false,
            "inputs": [
                {
                    "name": "addrs",
                    "type": "address[]"
                },
                {
                    "name": "values",
                    "type": "uint256[]"
                }
            ],
            "name": "multiSend",
            "outputs": [],
            "payable": false,
            "stateMutability": "nonpayable",
            "type": "function"
        },
        {
            "constant": false,
            "inputs": [
                {
                    "name": "token",
                    "type": "address"
                },
                {
                    "name": "addrs",
                    "type": "address[]"
                },
                {
                    "name": "values",
                    "type": "uint256[]"
                }
            ],
            "name": "multiSendToken",
            "outputs": [],
            "payable": false,
            "stateMutability": "nonpayable",
            "type": "function"
        },
        {
            "constant": false,
            "inputs": [
                {
                    "name": "_amount",
                    "type": "uint256"
                }
            ],
            "name": "withdraw",
            "outputs": [],
            "payable": false,
            "stateMutability": "nonpayable",
            "type": "function"
        }
    ],
    "bytecode": "0x6080604052336000806101000a81548173ffffffffffffffffffffffffffffffffffffffff021916908373ffffffffffffffffffffffffffffffffffffffff1602179055506105cf806100536000396000f300608060405260043610610062576000357c0100000000000000000000000000000000000000000000000000000000900463ffffffff1680632e1a7d4d146100645780638da5cb5b146100915780638e899718146100e8578063bb4c9f0b146101b1575b005b34801561007057600080fd5b5061008f6004803603810190808035906020019092919050505061025a565b005b34801561009d57600080fd5b506100a6610320565b604051808273ffffffffffffffffffffffffffffffffffffffff1673ffffffffffffffffffffffffffffffffffffffff16815260200191505060405180910390f35b3480156100f457600080fd5b506101af600480360381019080803573ffffffffffffffffffffffffffffffffffffffff1690602001909291908035906020019082018035906020019080806020026020016040519081016040528093929190818152602001838360200280828437820191505050505050919291929080359060200190820180359060200190808060200260200160405190810160405280939291908181526020018383602002808284378201915050505050509192919290505050610345565b005b3480156101bd57600080fd5b5061025860048036038101908080359060200190820180359060200190808060200260200160405190810160405280939291908181526020018383602002808284378201915050505050509192919290803590602001908201803590602001908080602002602001604051908101604052809392919081815260200183836020028082843782019150505050505091929192905050506104b1565b005b6000809054906101000a900473ffffffffffffffffffffffffffffffffffffffff1673ffffffffffffffffffffffffffffffffffffffff163373ffffffffffffffffffffffffffffffffffffffff161415156102b557600080fd5b6000809054906101000a900473ffffffffffffffffffffffffffffffffffffffff1673ffffffffffffffffffffffffffffffffffffffff166108fc829081150290604051600060405180830381858888f1935050505015801561031c573d6000803e3d6000fd5b5050565b6000809054906101000a900473ffffffffffffffffffffffffffffffffffffffff1681565b6000806000809054906101000a900473ffffffffffffffffffffffffffffffffffffffff1673ffffffffffffffffffffffffffffffffffffffff163373ffffffffffffffffffffffffffffffffffffffff161415156103a357600080fd5b849150600090505b83518110156104aa578173ffffffffffffffffffffffffffffffffffffffff1663a9059cbb85838151811015156103de57fe5b9060200190602002015185848151811015156103f657fe5b906020019060200201516040518363ffffffff167c0100000000000000000000000000000000000000000000000000000000028152600401808373ffffffffffffffffffffffffffffffffffffffff1673ffffffffffffffffffffffffffffffffffffffff16815260200182815260200192505050600060405180830381600087803b15801561048557600080fd5b505af1158015610499573d6000803e3d6000fd5b5050505080806001019150506103ab565b5050505050565b60008060009054906101000a900473ffffffffffffffffffffffffffffffffffffffff1673ffffffffffffffffffffffffffffffffffffffff163373ffffffffffffffffffffffffffffffffffffffff1614151561050e57600080fd5b600090505b825181101561059e57828181518110151561052a57fe5b9060200190602002015173ffffffffffffffffffffffffffffffffffffffff166108fc838381518110151561055b57fe5b906020019060200201519081150290604051600060405180830381858888f19350505050158015610590573d6000803e3d6000fd5b508080600101915050610513565b5050505600a165627a7a72305820bc33e6dd2725089d4cb4c3dc7852073317304652dda6436f83cfa2a2870bdd400029",
    "source": "pragma solidity 0.4.24;\n\ncontract Token {\n    function transfer(address, uint) public;\n}\n\ncontract MultiSend {\n\n    address public owner;\n\n    constructor() public payable{\n        owner = msg.sender;        \n    }\n\n    function multiSend(address[] addrs, uint[] values) public {\n        require(msg.sender == owner);\n        for(uint256 i = 0; i < addrs.length; i++){\n            addrs[i].transfer(values[i]);\n        }\n    }\n\n    function multiSendToken(address token, address[] addrs, uint[] values) public {\n        require(msg.sender == owner);\n        Token erc20token = Token(token);\n        for(uint256 i = 0; i < addrs.length; i++){\n            erc20token.transfer(addrs[i], values[i]);\n        }\n    }\n\n    // In case you change your mind, this will get your ether back to your account\n    function withdraw(uint256 _amount) public {\n        require(msg.sender == owner);\n        owner.transfer(_amount);\n    }\n\n    function () public payable{}   \n}\n",
    "sourcePath": "/Users/nhannvu/Desktop/nhannvu/myws/contracts/MultiSend.sol",
    "compiler": {
        "name": "solc",
        "version": "0.4.24+commit.e67f0147.Emscripten.clang"
    },
    "schemaVersion": "3.0.17",
    "updatedAt": "2020-09-13T08:30:00.149Z",
    "devdoc": {
        "methods": {}
    },
    "userdoc": {
        "methods": {}
    }
}