{
  "contractName": "Betnami",
  "abi": [
    {
      "constant": true,
      "inputs": [
        {
          "name": "",
          "type": "address"
        },
        {
          "name": "",
          "type": "uint256"
        }
      ],
      "name": "betPlayers",
      "outputs": [
        {
          "name": "playerAddress",
          "type": "address"
        },
        {
          "name": "betAmount",
          "type": "uint256"
        }
      ],
      "payable": false,
      "stateMutability": "view",
      "type": "function"
    },
    {
      "constant": false,
      "inputs": [
        {
          "name": "_matchSide",
          "type": "address"
        }
      ],
      "name": "bet",
      "outputs": [],
      "payable": true,
      "stateMutability": "payable",
      "type": "function"
    },
    {
      "constant": true,
      "inputs": [
        {
          "name": "_matchSide",
          "type": "address"
        }
      ],
      "name": "getBetPlayersCount",
      "outputs": [
        {
          "name": "",
          "type": "uint256"
        }
      ],
      "payable": false,
      "stateMutability": "view",
      "type": "function"
    },
    {
      "constant": true,
      "inputs": [
        {
          "name": "_matchSide",
          "type": "address"
        },
        {
          "name": "index",
          "type": "uint256"
        }
      ],
      "name": "getBetPlayer",
      "outputs": [
        {
          "name": "",
          "type": "address"
        },
        {
          "name": "",
          "type": "uint256"
        }
      ],
      "payable": false,
      "stateMutability": "view",
      "type": "function"
    }
  ],
  "bytecode": "0x608060405234801561001057600080fd5b506104c5806100206000396000f300608060405260043610610062576000357c0100000000000000000000000000000000000000000000000000000000900463ffffffff1680630474a68e146100675780632cb41ffa1461009d5780633fe9d7ce146101315780639809f0e114610188575b600080fd5b61009b600480360381019080803573ffffffffffffffffffffffffffffffffffffffff16906020019092919050505061021c565b005b3480156100a957600080fd5b506100e8600480360381019080803573ffffffffffffffffffffffffffffffffffffffff16906020019092919080359060200190929190505050610328565b604051808373ffffffffffffffffffffffffffffffffffffffff1673ffffffffffffffffffffffffffffffffffffffff1681526020018281526020019250505060405180910390f35b34801561013d57600080fd5b50610172600480360381019080803573ffffffffffffffffffffffffffffffffffffffff1690602001909291905050506103be565b6040518082815260200191505060405180910390f35b34801561019457600080fd5b506101d3600480360381019080803573ffffffffffffffffffffffffffffffffffffffff16906020019092919080359060200190929190505050610409565b604051808373ffffffffffffffffffffffffffffffffffffffff1673ffffffffffffffffffffffffffffffffffffffff1681526020018281526020019250505060405180910390f35b610224610469565b3481602001818152505033816000019073ffffffffffffffffffffffffffffffffffffffff16908173ffffffffffffffffffffffffffffffffffffffff16815250506000808373ffffffffffffffffffffffffffffffffffffffff1673ffffffffffffffffffffffffffffffffffffffff168152602001908152602001600020819080600181540180825580915050906001820390600052602060002090600202016000909192909190915060008201518160000160006101000a81548173ffffffffffffffffffffffffffffffffffffffff021916908373ffffffffffffffffffffffffffffffffffffffff160217905550602082015181600101555050505050565b60008060008060008673ffffffffffffffffffffffffffffffffffffffff1673ffffffffffffffffffffffffffffffffffffffff1681526020019081526020016000208481548110151561037857fe5b906000526020600020906002020190508060000160009054906101000a900473ffffffffffffffffffffffffffffffffffffffff16816001015492509250509250929050565b60008060008373ffffffffffffffffffffffffffffffffffffffff1673ffffffffffffffffffffffffffffffffffffffff168152602001908152602001600020805490509050919050565b60006020528160005260406000208181548110151561042457fe5b9060005260206000209060020201600091509150508060000160009054906101000a900473ffffffffffffffffffffffffffffffffffffffff16908060010154905082565b6040805190810160405280600073ffffffffffffffffffffffffffffffffffffffff1681526020016000815250905600a165627a7a72305820916283dd7a280ddb5f7dab615fd418b5add209d43c4c20b6923333cf21c501d90029",
  "source": "pragma solidity ^0.4.24;\n\ncontract Betnami {\n\n  struct Player {\n    address playerAddress;\n    uint256 betAmount;\n  }\n\n  mapping(address => Player[]) public betPlayers;\n\n  function bet(address _matchSide) public payable {\n    Player memory player;\n    player.betAmount = msg.value;\n    player.playerAddress = msg.sender;\n    betPlayers[_matchSide].push(player);\n  }\n\n  function getBetPlayersCount(address _matchSide) public constant returns (uint256) {\n    return betPlayers[_matchSide].length;\n  }\n\n  function getBetPlayer(address _matchSide, uint256 index) public view returns (address, uint256) {\n    Player storage player = betPlayers[_matchSide][index];\n\n    return (player.playerAddress, player.betAmount);\n  }\n}\n",
  "sourcePath": "/Users/nhannvu/Desktop/nhannvu/myws/contracts/Betnami.sol",
  "compiler": {
    "name": "solc",
    "version": "0.4.24+commit.e67f0147.Emscripten.clang"
  },
  "schemaVersion": "3.0.17",
  "updatedAt": "2020-09-13T04:08:27.260Z",
  "devdoc": {
    "methods": {}
  },
  "userdoc": {
    "methods": {}
  }
}